:100000000C9461000C947E000C947E000C947E0095
:100010000C947E000C947E000C947E000C947E0068
:100020000C947E000C947E000C947E000C947A104C
:100030000C947E000C947E000C947E000C947E0048
:100040000C9452110C947E000C947E000C947E0053
:100050000C947E000C947E000C947E000C947E0028
:100060000C947E000C947E00000000002400270009
:100070002A0000000000250028002B0000000000DE
:1000800023002600290004040404040404040202DA
:100090000202020203030303030301020408102007
:1000A0004080010204081020010204081020000012
:1000B0000007000201000003040600000000000029
:1000C000000011241FBECFEFD8E0DEBFCDBF11E08E
:1000D000A0E0B1E0EAEBF5E202C005900D92AA3192
:1000E000B107D9F716E0AAE1B1E001C01D92A63729
:1000F000B107E1F70E944B110C94DB120C94000045
:10010000FB01DC0102C001900D9241505040D8F734
:100110000895FC018191861721F08823D9F799274A
:1001200008953197CF010895FB01DC018D91019075
:1001300080190110D9F3990B0895FB01DC0101909E
:100140000D920020E1F70895FB01DC014150504081
:1001500030F08D910190801919F40020B9F7881BB7
:10016000990B0895AEE0B0E0E8EBF0E00C94B21229
:100170000D891E8986E08C831A8309838FEF9FE7A0
:100180009E838D839E01275E3F4FCE0101966F892E
:10019000788DA9010E94D6002F813885020F131F88
:1001A000F80110822E96E4E00C94CE12ABE0B0E0A1
:1001B000ECEDF0E00C94A4123C012B015A01FC017F
:1001C00017821682838181FD03C06FEF7FEFC6C166
:1001D0009AE0892E1E010894211C311CF301238111
:1001E000F20123FD859123FF81912F01882309F4DA
:1001F000B2C1853239F423FD859123FF81912F010E
:10020000853229F490E0B3010E94C902E7CF982F0C
:10021000FF24EE249924FFE1FF15D0F09B3269F012
:100220009C3228F4903259F0933291F40EC09D32F2
:1002300049F0903369F441E024C052E0F52A84E0AB
:10024000F82A28C098E0F92A25C0E0E1FE2A22C059
:10025000F7FC29C0892F80538A3070F4F6FE05C060
:10026000989C902C1124980E15C0E89CE02C112429
:10027000E80EF0E2FF2A0EC09E3229F4F6FC6BC1B4
:1002800040E4F42A07C09C3619F450E8F52A02C06D
:10029000983649F4F20123FD959123FF91912F01A6
:1002A000992309F0B8CF892F8554833018F08052F4
:1002B000833038F444E050E0A40EB51E5FE3598368
:1002C0000FC0933631F0933779F0933509F056C06B
:1002D00020C0F5018081898342E050E0A40EB51E64
:1002E000610101E010E012C0F501C080D180F6FC90
:1002F00003C06FEF7FEF02C0692D70E042E050E075
:10030000A40EB51EC6010E94BE028C015FE7F52255
:1003100014C0F501C080D180F6FC03C06FEF7FEF01
:1003200002C0692D70E042E050E0A40EB51EC60187
:100330000E94B3028C0150E8F52AF3FE07C01AC0F0
:1003400080E290E0B3010E94C902EA948E2D90E011
:1003500008171907A8F30EC0F601F7FC8591F7FE00
:1003600081916F0190E0B3010E94C902E110EA940B
:10037000015010400115110579F7EAC0943611F0CB
:10038000993669F5F7FE08C0F50120813181428177
:10039000538184E090E00AC0F501808191819C0145
:1003A000442737FD4095542F82E090E0A80EB91EF7
:1003B0009FE6F92257FF09C0509540953095219549
:1003C0003F4F4F4F5F4FE0E8FE2ACA01B901A1013C
:1003D0002AE030E00E94F502D82ED21840C09537AE
:1003E00029F41F2D1F7E2AE030E01DC01F2D197F2C
:1003F0009F3661F0903720F4983509F0ACC00FC0FB
:10040000903739F0983709F0A6C004C028E030E0F2
:100410000AC0106114FD146020E130E004C014FD36
:10042000166020E132E017FF08C0F501608171819C
:100430008281938144E050E008C0F5018081918180
:10044000BC0180E090E042E050E0A40EB51EA101A6
:100450000E94F502D82ED2188FE7F82EF122F6FE70
:100460000BC05EEFF522D91438F4F4FE07C0F2FC9D
:1004700005C08FEEF82202C01D2D01C0192DF4FE1B
:100480000DC0FE01ED0DF11D8081803319F499EE50
:10049000F92208C01F5FF2FE05C003C08F2D8678C9
:1004A00009F01F5F0F2DF3FC14C0F0FE0FC01E15E6
:1004B00010F09D2C0BC09D2C9E0C911A1E2D06C079
:1004C00080E290E0B3010E94C9021F5F1E15C0F3D5
:1004D00004C01E1510F4E11A01C0EE2404FF0FC081
:1004E00080E390E0B3010E94C90202FF1DC001FD3C
:1004F00003C088E790E00EC088E590E00BC0802F35
:10050000867891F001FF02C08BE201C080E2F7FC27
:100510008DE290E0B3010E94C90206C080E390E042
:10052000B3010E94C9029A94D914C0F3DA94F1017C
:10053000ED0DF11D808190E0B3010E94C902DD2024
:10054000A9F706C080E290E0B3010E94C902EA94D4
:10055000EE20C1F743CEF30166817781CB012B9664
:10056000E2E10C94C012FC01059061507040011052
:10057000D8F7809590958E0F9F1F0895FC016150CC
:10058000704001900110D8F7809590958E0F9F1FB5
:1005900008950F931F93CF93DF938C01EB018B8111
:1005A00081FF1BC082FF0DC02E813F818C819D8108
:1005B0002817390764F4E881F9810193F983E88306
:1005C00006C0E885F985802F0995892B31F48E8145
:1005D0009F8101969F838E8302C00FEF1FEFC8019A
:1005E000DF91CF911F910F910895FA01AA2728302A
:1005F00051F1203181F1E8946F936E7F6E5F7F4FF0
:100600008F4F9F4FAF4FB1E03ED0B4E03CD0670F6B
:10061000781F891F9A1FA11D680F791F8A1F911DBE
:10062000A11D6A0F711D811D911DA11D20D009F40E
:1006300068943F912AE0269F11243019305D319350
:10064000DEF6CF010895462F4770405D4193B3E039
:100650000FD0C9F7F6CF462F4F70405D4A3318F0E0
:10066000495D31FD4052419302D0A9F7EACFB4E091
:10067000A6959795879577956795BA95C9F7009749
:100680006105710508959B01AC010A2E06945795EA
:10069000479537952795BA95C9F7620F731F841F41
:1006A000951FA01D0895DF93CF9300D0CDB7DEB77F
:1006B000DC01009781F16230710568F1ED91FC91E8
:1006C0001197660F771F80E090E016962D913D916F
:1006D0004D915C911997620F731F841F951F0190B4
:1006E000F081E02DAE014F5F5F4F22E030E00995D1
:1006F000882389F029813A812115310571F08FEF26
:10070000273F380741F0C9014096079720F08FEF47
:10071000283F380710F020E030E0C9010F900F901B
:10072000CF91DF910895FC01009711F011821082A2
:1007300008952F923F924F925F926F927F928F9285
:100740009F92AF92BF92CF92DF92EF92FF920F9360
:100750001F93DF93CF93CDB7DEB72A970FB6F894E8
:10076000DEBF0FBECDBF2C017A8369835C834B83D0
:10077000009709F409C1672B09F406C1452B09F458
:1007800003C1DC019D96AD90BD90CD90DC90D097DB
:1007900095962D913D914D915C919897EB81FC81BF
:1007A000CF01A0E0B0E08A0D9B1DAC1DBD1D281738
:1007B00039074A075B0740F4B9016A197B097C8352
:1007C0006B83672B09F4E3C0D201ED91FC91119783
:1007D00020883188D196ED91FC91D297FA87E987EC
:1007E000EF2BF1F593962D913C9194973A872987B9
:1007F000232B39F4A114B104C104D10409F4C7C0F6
:10080000C3C0A114B104C104D10451F18601750122
:1008100031018824992466277727CB016619770947
:10082000880999096D837E838F83988714C0D201CC
:100830008D919C9169857A850E9453039A87898757
:10084000892B09F4A1C06D817E818F819885E60E88
:10085000F71E081F191FE614F7040805190538F7D5
:10086000089421083108A220B3200894211C311CCF
:10087000CB80DC80D201ED90FC90E114F10409F111
:10088000E985FA85E230F105E0F03297BF0180E0BA
:1008900090E03296FA87E987D70150962D913C91E6
:1008A000519740E050E00E944F129B01AC01F701CC
:1008B00082899389A489B589280F391F4A1F5B1F34
:1008C00004C020E030E040E050E081010A191B093B
:1008D000C016D10608F48601D701ED91FC91C5013F
:1008E000A0E0B0E0280F391F4A1F5B1F0190F08184
:1008F000E02DCA01B90149815A81980109958823DF
:1009000041F1C01AD10AC801A0E0B0E0F20125A56A
:1009100036A547A550A9280F391F4A1F5B1FD201D2
:100920009D962D933D934D935C93D097C8018A0D6E
:100930009B1D82159305A0F08D919C9169857A8508
:100940000E9453039A878987892B41F4F20112AAE6
:1009500011AA4B815C814C195D091BC0AA24BB24E0
:10096000E985FA85D201D296FC93EE93D197C11412
:10097000D10439F029813A81200F311F3A8329832C
:1009800079CF4B815C8105C04FEF5FEF02C040E043
:1009900050E0CA012A960FB6F894DEBF0FBECDBF55
:1009A000CF91DF911F910F91FF90EF90DF90CF904B
:1009B000BF90AF909F908F907F906F905F904F907F
:1009C0003F902F900895FC01009711F480E0089566
:1009D00083A194A196A785A710AA17A681E00895E0
:1009E000CF92DF92EF92FF920F931F93CF93DF93FB
:1009F0008C016A017B01A901D901CD91DC9111978C
:100A000012968D919C911397809613969C938E933A
:100A10001297F8018081853E09F4BAC0882309F451
:100A2000B7C08FA198A5A9A5BAA50097A105B10542
:100A300021F4CFA2D8A6E9A6FAA6209709F4AAC065
:100A40000115110509F4A6C0D8019C91992309F458
:100A5000A1C01B968C918F30A1F5892F90E08F73E8
:100A600090702DE030E0829FA001839F500D929FF7
:100A7000500D11244D50504010921B0110921A013C
:100A800011C0AC0FBD1FF901E45FFE4F8081F8017A
:100A9000E80FF11D80818C932F5F3F4F30931B0136
:100AA00020931A0120911A0130911B012D3031053C
:100AB00008F06EC0DA01A20FB31FAF31B10508F321
:100AC00067C08881882309F04FC0B801DE01780132
:100AD00020E0F70190819032A1F09C93F801848589
:100AE00083FF08C0F7018081813420F08B3510F43A
:100AF000905E9C932F5F0894E11CF11C11962830A6
:100B000041F78881853011F485EE8883D8011896E5
:100B10008C91803211F4322F23C0FE01E20FF11DBF
:100B20008EE28083322F3F5F2C5FFB0190859032F5
:100B3000B9F0FE01E30FF11D9083D8011C968C9152
:100B400084FF09C0DB0118968C91813420F08B352D
:100B500010F4905E90833F5F6F5F7F4F321729F7ED
:100B6000FE01E30FF11D1082F801838588A3828DB9
:100B7000938D9AA389A3848D958DA68DB78D8BA314
:100B80009CA3ADA3BEA381E0DA0114968C9302C0AE
:100B900081E001C080E0DF91CF911F910F91FF9024
:100BA000EF90DF90CF9008952F923F924F925F92F7
:100BB0006F927F928F929F92AF92BF92CF92DF926D
:100BC000EF92FF920F931F93DF93CF93CDB7DEB7D2
:100BD000A7970FB6F894DEBF0FBECDBF2C017FA341
:100BE0006EA3009709F4B1C06115710509F4ADC099
:100BF000DC018D909C901197F401208831889D969E
:100C0000AD90BC909E979F966D907C90D0978BE214
:100C1000DB011D928A95E9F7FE01319685E0DF013F
:100C20001D928A95E9F7A114B10409F076C0F40188
:100C30002288338886899789281A390A6EC07301F9
:100C400000E010E0A114B10441F4D40156966D9176
:100C50007D918D919C9159972DC08114910421F122
:100C6000B2E0AB16B10400F1EEEFFFEFAE0EBF1E27
:100C7000B50180E090E022E030E0A20EB31ED40186
:100C800050962D913C91519740E050E00E944F12B8
:100C90009B01AC01F40182899389A489B589280F4D
:100CA000391F4A1F5B1F04C020E030E040E050E0E5
:100CB000CA01B9016E0D7F1D801F911F1C821B820E
:100CC000D401ED91FC918101061917090280F3818D
:100CD000E02DAE014A5F5F4F20E230E0A0EFEA2E48
:100CE000A4E0FA2E6E010894C11CD11C099588233A
:100CF00061F18B819C81680E791E6214730488F007
:100D0000C401B5010E9453035C0166247724009757
:100D100041F4F201A3A0B4A008C02EA13FA13A83E0
:100D200029838D81882309F48ACFD2019E96BC92B3
:100D3000AE929D97D0967C926E929F97EEA1FFA166
:100D40008081882319F081E001C080E0A7960FB66A
:100D5000F894DEBF0FBECDBFCF91DF911F910F91F1
:100D6000FF90EF90DF90CF90BF90AF909F908F90CB
:100D70007F906F905F904F903F902F9008952F92AB
:100D80003F924F925F926F927F928F929F92AF921B
:100D9000BF92CF92DF92EF92FF920F931F93DF9358
:100DA000CF93CDB7DEB7A8970FB6F894DEBF0FBECE
:100DB000CDBF98A78FA3009709F45CC1DC011496FE
:100DC0008D919C911597892B09F454C116968D919C
:100DD0009C911797892B09F44DC168C1ECE1F1E0B2
:100DE0008AE1DF011D928A95E9F7EFA1F8A5F0935A
:100DF0001D01E0931C01218432844384548459E012
:100E0000220C331C441C551C5A95D1F7C201B10168
:100E1000655F7F4F8F4F9F4F0190F081E02DAE01B6
:100E20004F5F5F4F29E130E00995882309F445C100
:100E3000E981FA81FBA3EAA32C813D81FB81FCA31C
:100E40004E818F8198859EA38DA3E985FA856C8557
:100E50007D856E887F88888C998C611471048104EB
:100E6000910431F4309709F428C13F018824992472
:100E70006115710509F421C1C901A0E0B0E08E8FB0
:100E80009F8FA8A3B9A380E090E0242F30E040E03A
:100E900050E00E944F126A8F7B8F8C8F9D8F840150
:100EA00073012E8D3F8D48A159A1E21AF30A040B5C
:100EB000150BE61AF70A080B190B8AA19BA10197DB
:100EC0002DA13EA145E0220F331F4A95E1F7820F85
:100ED000931F6AA17BA10E946E1280E090E0E61A47
:100EE000F70A080B190B8CA1282F30E040E050E0E6
:100EF000C801B7010E94821279018A0195EFE916B3
:100F00009FE0F90690E0090790E0190708F4D5C0C2
:100F1000A5EFEA16AFEFFA06A0E00A07A0E01A076D
:100F200028F486E0EFA1F8A5808705C08BE0AFA18B
:100F3000B8A518968C9388E1EEE1F1E0DF011D92EF
:100F40008A95E9F7EAA1FBA15F01CC24DD24C40165
:100F5000B301A60195010E944F1260931E01709388
:100F60001F018093200190932101C601B5012E8DB0
:100F70003F8D48A159A10E944F12260E371E481ED0
:100F8000591E209222013092230140922401509256
:100F90002501AFA1B8A518968C91863029F064E0A0
:100FA00070E080E090E004C062E070E080E090E0FB
:100FB00022E030E040E050E0E20EF31E041F151F77
:100FC000A80197010E944F12609326017093270198
:100FD00080932801909329014AA15BA150932B0192
:100FE00040932A015CA1852F90E0DC01EAA1FBA1DE
:100FF000AE9FC001AF9F900DBE9F900D11249093A6
:101000002D0180932C016A8D7B8D8C8D9D8DA60189
:1010100095010E944F1220912201309123014091AD
:10102000240150912501620F731F841F951F609347
:101030003201709333018093340190933501ADA157
:10104000BEA19D0140E050E0B5E0220F331F441FD8
:10105000551FBA95D1F7620F731F841F951F6093B8
:101060002E0170932F0180933001909331012CE178
:1010700031E002C020E030E0C901A8960FB6F89434
:10108000DEBF0FBECDBFCF91DF911F910F91FF90BB
:10109000EF90DF90CF90BF90AF909F908F907F9018
:1010A0006F905F904F903F902F90089580911C011A
:1010B00090911D01892BF1F691CE10921D01109295
:1010C0001C01D8CFCF93DF93AC01DB01009789F1EE
:1010D0006115710571F190968C91909784FF29C0EC
:1010E0008091690190916A01892B19F4E9E6F1E098
:1010F00008C080919A0190919B01892BD1F4EAE973
:10110000F1E09F012E5F3F4FBD018BE2EB010990A3
:10111000BE01E90109929E018150C1F751834083CC
:1011200091968D919C91929796A785A710AA17A644
:1011300002C0E0E0F0E0CF01DF91CF910895CF93BE
:10114000DF939C01FB01009731F06115710519F0E7
:1011500080A184FF23C020E030E0C901DF91CF915E
:101160000895C8E3D1E0DF018BE20D900992815030
:10117000E1F730933701209336011092630110920A
:101180006401109265011092660181A192A1909371
:1011900068018093670126E331E0DFCF809136015B
:1011A00090913701892BB9F6DCCF6F927F928F92A5
:1011B0009F92AF92BF92CF92DF92EF92FF920F93E6
:1011C0001F93CF93DF934C01EB017A01009709F451
:1011D00067C06115710509F463C08881882309F42B
:1011E0005FC04115510509F45BC08F3209F42196A7
:1011F0008BE2F70111928A95E9F780E1F70180A36C
:10120000370101C0E5018881882309F44BC0C4017E
:10121000B7010E9462086C01009709F441C0CE0139
:101220006FE270E00E948900009739F0482F4C1B54
:101230005C010894A11CB11C2AC0FE010190002091
:10124000E9F731974E2F4C1B5E01A40EB11C1FC055
:10125000F30101900020E9F73197E619F709E0174B
:10126000F107B9F4CE01B301A8010E94A4000097D0
:1012700081F4F601118210820C0F1D1FF80180818C
:10128000882381F0F70180A184FDBCCF09C0042F21
:1012900010E0C601B7010E94D4058823C9F612C028
:1012A00080E001C081E0DF91CF911F910F91FF900D
:1012B000EF90DF90CF90BF90AF909F908F907F90F6
:1012C0006F900895F601118210829DCF8F929F92A8
:1012D000AF92BF92CF92DF92EF92FF920F93DF9384
:1012E000CF93CDB7DEB760970FB6F894DEBF0FBED1
:1012F000CDBF7C016B015A014901009709F493C0ED
:101300006115710509F48FC004300CF08CC007FD25
:101310001DC0602F772767FD7095E4E0660F771F8B
:10132000EA95E1F762547E4F882777FD8095982FE4
:10133000AE014F5F5F4F20E130E0F7010995882350
:1013400009F471C08D81882309F46DC08091D301A7
:10135000882309F068C07CC08D818093D3012A85E1
:1013600030E040E050E0542F432F322F22278B856E
:1013700090E0A0E0B0E0DC0199278827282B392BEA
:101380004A2B5B2B898590E0A0E0B0E0282B392B1D
:101390004A2B5B2B8C8590E0A0E0B0E0B82FAA2709
:1013A00099278827282B392B4A2B5B2B2093D40194
:1013B0003093D5014093D6015093D7012E8530E06C
:1013C00040E050E0542F432F322F22278F8590E0AA
:1013D000A0E0B0E0DC0199278827282B392B4A2B85
:1013E0005B2B8D8590E0A0E0B0E0282B392B4A2BB9
:1013F0005B2B888990E0A0E0B0E0B82FAA2799275E
:101400008827282B392B4A2B5B2B2093D80130932C
:10141000D9014093DA015093DB0103C08FEF809331
:10142000D3019F0102C020E030E0C90160960FB6F1
:10143000F894DEBF0FBECDBFCF91DF910F91FF902B
:10144000EF90DF90CF90BF90AF909F908F900895D6
:10145000EBECF1E081E1DF011D928A95E9F7F09272
:10146000CC01E092CB01D092CE01C092CD01B092DE
:10147000D001A092CF019092D2018092D10107FFBA
:101480006BCFCCCF282F8FEF8EBD0DB407FEFDCFD5
:101490008DB58F778DBD8EB5822F80648EBD0DB4D6
:1014A00007FEFDCF8DB58F778DBD872F9927AA2792
:1014B000BB278EBD0DB407FEFDCF8DB58F778DBDDB
:1014C000CB01AA27BB278EBD0DB407FEFDCF8DB57E
:1014D0008F778DBDBB27A72F962F852F8EBD0DB47F
:1014E00007FEFDCF8DB58F778DBD4EBD0DB407FEC8
:1014F000FDCF8DB58F778DBD222319F0283069F48B
:1015000006C085E98EBD0DB407FEFDCF0BC087E890
:101510008EBD0DB407FEFDCF05C08FEF8EBD0DB49F
:1015200007FEFDCF8DB58F778DBD1092DD01109236
:10153000DC0120E030E09FEF13C09EBD0DB407FE3C
:10154000FDCF8DB58F778DBD8EB5A9014F5F5F4FF4
:101550008F3F29F03093DD012093DC0108959A013B
:101560002A30310550F33093DD012093DC018FEFF9
:1015700008952F923F924F925F926F927F928F9237
:101580009F92AF92BF92CF92DF92EF92FF920F9312
:101590001F93CF93DF934B015C012A013901332460
:1015A0003A9422242394AFC0E401D170CE01A0E08C
:1015B000B0E085017401E81AF90A0A0B1B0BC12C73
:1015C000B2E0DB2ECC1ADD0A6C147D0408F4630152
:1015D0008091DE039091DF03A091E003B091E103DD
:1015E000E816F9060A071B07F9F00E949D0B8823ED
:1015F00009F48FC0209729F480E0C81682E0D8064D
:1016000058F4C801B7014EED51E020E032E00E94ED
:10161000B70B882309F47DC0E092DE03F092DF036C
:101620000093E0031093E1038EED481681E0580625
:1016300071F09E0122523E4FC901B201A6010E94E3
:1016400080001092E2036C147D0409F460C02898B5
:1016500088E1B801A7010E94420A882311F0289A64
:1016600058C08EEF8EBD0DB407FEFDCF8DB58F77C0
:101670008DBD1092DD011092DC01EEEDF1E020E075
:1016800030E00BC080818EBD0DB407FEFDCF3196DA
:101690008DB58F778DBD2F5F3F4F82E020303807AB
:1016A00088F33093DD012093DC013EBC0DB407FECE
:1016B000FDCF8DB58F778DBD3EBC0DB407FEFDCF40
:1016C0008DB58F778DBD3EBC0DB407FEFDCF8DB5BA
:1016D0008F778DBD8EB58F3FB1F78EBD0DB407FEF0
:1016E000FDCF8DB58F778DBD8EB5289A4C0C5D1CC6
:1016F000C601A0E0B0E0880E991EAA1EBB1E6C18A1
:101700007D082092E2036114710409F04DCF81E05D
:1017100001C080E0DF91CF911F910F91FF90EF907A
:10172000DF90CF90BF90AF909F908F907F906F9001
:101730005F904F903F902F9008958091E20388230F
:1017400011F081E008956091DE037091DF038091D4
:10175000E0039091E1034EED51E020E032E00E9481
:10176000B90A882319F081E08093E20308953F923B
:101770004F925F926F927F928F929F92AF92BF92A1
:10178000CF92DF92EF92FF920F931F93CF93DF934D
:101790003B014C016A01290133243A9496C01FEFA2
:1017A000A12E11E0B12EA620B720C501A0E0B0E027
:1017B00084017301E81AF90A0A0B1B0BC0E0D2E09E
:1017C000CA19DB094C165D0608F4E2018091DE03BC
:1017D0009091DF03A091E003B091E103E816F906D0
:1017E0000A071B0709F45EC00E949D0B882309F4B9
:1017F00071C0289881E1B801A7010E94420A88239C
:1018000019F0289A80E066C03EBC0DB407FEFDCFFB
:101810008DB58F778DBD8EB58E3FB1F7EEEDF1E0D2
:1018200020E030E00BC03EBC0DB407FEFDCF8DB50F
:101830008F778DBD8EB581932F5F3F4F82E0203033
:10184000380788F33093DD012093DC01E092DE035A
:10185000F092DF030093E0031093E103950122521D
:101860003E4FC601B901AE010E9480003EBC0DB4DE
:1018700007FEFDCF8DB58F778DBD8EB53EBC0DB407
:1018800007FEFDCF8DB58F778DBD8EB5289A3EBCF6
:101890000DB407FEFDCFCC0EDD1E8DB58F778DBD4F
:1018A0008EB50AC0950122523E4FC601B901AE0164
:1018B0000E948000CC0EDD1E4C1A5D0ACE01A0E015
:1018C000B0E0680E791E8A1E9B1E4114510409F077
:1018D00066CF81E0DF91CF911F910F91FF90EF9044
:1018E000DF90CF90BF90AF909F908F907F906F9040
:1018F0005F904F903F9008952F923F924F925F924A
:101900006F927F928F929F92AF92BF92CF92DF920F
:10191000EF92FF920F931F93DF93CF9300D000D0ED
:10192000CDB7DEB74B015C013A013C832B83270125
:10193000DA82C98241155105A9F12115310591F1CC
:101940000217130778F1E114F10461F119013094E1
:10195000219431083394021B130B6901EE24FF24F8
:10196000C501B401A3012B813C810E94B70B8823E0
:10197000C9F0C301B501A40129813A81F201099599
:10198000882391F0020D131D8B819C81800F911F84
:101990002B813C818217930738F08C0C9D1CAE1C68
:1019A000BF1CDECF80E001C081E00F900F900F9050
:1019B0000F90CF91DF911F910F91FF90EF90DF90EB
:1019C000CF90BF90AF909F908F907F906F905F90DF
:1019D0004F903F902F9008951F93CF93DF93239ABA
:1019E000259A209A24982C9A289A83E58CBD8DB547
:1019F0008E7F8DBD1092E30320E030E09FEF0AC0A0
:101A00009EBD0DB407FEFDCF8DB58F778DBD8EB514
:101A10002F5F3F4F2A30310598F33093DD0120933B
:101A2000DC0128981092DD011092DC0180E040E09A
:101A300050E060E070E00E94420A182F813079F097
:101A40008091DC019091DD0121E08F3F920709F444
:101A50004DC001969093DD018093DC01E7CF87E3D1
:101A600040E050E060E070E00E94420A89E240E01D
:101A700050E060E070E00E94420A82FD02C01093D4
:101A8000E3031092DD011092DC018091E303C82F83
:101A9000D0E0C370D070209749F087E340E050E079
:101AA00060E070E00E94420A89E201C081E040E00B
:101AB00050E060E070E00E94420A80FF0EC080911A
:101AC000DC019091DD012FE78F3F920779F00196BD
:101AD0009093DD018093DC01DECF80E140E052E0B5
:101AE00060E070E00E94420A882319F0289A80E0A2
:101AF00022C0289A8CB58C7F8CBD8DB581608DBD40
:101B00008FEF9FEFAFEFBFEF8093DE039093DF0384
:101B1000A093E003B093E10381E08093E20360E0EF
:101B200070E080E090E04EED51E020E032E00E9475
:101B3000B70B811181E0DF91CF911F9108954F92F2
:101B40005F926F927F928F929F92AF92BF92CF924D
:101B5000DF92EF92FF920F931F93CF93DF935B017E
:101B60006C014A01E901380127014115510571F164
:101B70000115110559F1FF242115310511F5FF2437
:101B8000F3941FC0C401B601A5019201F3010995A8
:101B90008C010097E9F0FF2019F4C817D907B0F0BD
:101BA000C601B501A40198010E94B90A882371F009
:101BB000C801A0E0B0E0A80EB91ECA1EDB1EC01B03
:101BC000D10BFF20F9F62097E9F602C080E001C0B2
:101BD00081E0DF91CF911F910F91FF90EF90DF9007
:101BE000CF90BF90AF909F908F907F906F905F90BD
:101BF0004F9008950F931F93CF93DF938C01EB01C8
:101C000019821882DC010D900020E9F71197A81BBA
:101C1000B90B662777276A1B7B0B40E050E031C089
:101C2000F801E40FF51FE0818E2F80538A3030F4E5
:101C30008E2F992787FD9095C0970DC08E2F8156C6
:101C4000863018F021E030E021C08E2F992787FDE3
:101C50009095875590409B0120953095220F331F1A
:101C6000220F331F02C0880F991F2A95E2F728819F
:101C70003981280F391F398328834F5F5F4F6F5F8A
:101C80007F4F4A175B0764F220E030E0C901DF9123
:101C9000CF911F910F910895AF92BF92CF92DF9293
:101CA000EF92FF920F931F93DF93CF9300D0CDB7A6
:101CB000DEB77B014CE250E00E9499038DB79EB7DE
:101CC00008970FB6F8949EBF0FBE8DBFEDB7FEB755
:101CD00031966E010894C11CD11CADB7BEB71296E7
:101CE000DC92CE921197A0E0AA2EA1E0BA2EB38288
:101CF000A282D70159968C91599784831582589660
:101D00008C91868317820E94B2008DB79EB7089689
:101D10000FB6F8949EBF0FBE8DBF06EE13E0C6014E
:101D2000B8010E94FA0DADB7BEB718970FB6F89478
:101D3000BEBF0FBEADBFEDB7FEB731961296DC92B7
:101D4000CE921197B382A282D70155968C91559766
:101D50008483158254968C91868317820E94B200E8
:101D60008DB79EB708960FB6F8949EBF0FBE8DBF75
:101D700002501040C601B8010E94FA0DADB7BEB7BF
:101D800018970FB6F894BEBF0FBEADBFEDB7FEB744
:101D900031961296DC92CE921197B382A282D7012D
:101DA00093968C9193978483158292968C918683D7
:101DB00017820E94B2008DB79EB708960FB6F894AE
:101DC0009EBF0FBE8DBF0C5F1F4FC601B8010E94A2
:101DD000FA0D0F900F90CF91DF911F910F91FF900F
:101DE000EF90DF90CF90BF90AF900895EF92FF9269
:101DF0000F931F93CF93DF93EC018B01BCE3EB2E8A
:101E0000B6E0FB2E13C0F70101900020E9F7CF01E7
:101E1000059765E071E00E949400009739F4C801CD
:101E20006CE376E00E949D0081E007C0CE016CE388
:101E300076E00E94D405882331F7DF91CF911F917E
:101E40000F91FF90EF9008950F930E94EC0C882360
:101E500009F445C087EB9BE06CE77CE049EB5AE076
:101E60002FE93DE000E00E94660990936A068093A6
:101E70006906892B89F487EB9BE06CE77CE049EBF2
:101E80005AE02FE93DE00FEF0E94660990936A0641
:101E900080936906892B19F18091690690916A06F1
:101EA0000E94BF0690936806809367060097B9F07A
:101EB0006AE071E04CE356E00E94D5088091670625
:101EC000909168066CE376E00E94620890933B066E
:101ED00080933A0620E0892B19F021E001C020E030
:101EE000822F0F910895EF92FF920F931F93CF933C
:101EF000DF93EB018A017901CB010E94E30408C062
:101F0000C701B8010E949400009711F481E006C057
:101F1000CE01B7010E94D405882391F7DF91CF91BC
:101F20001F910F91FF90EF900895EF92FF920F9302
:101F30001F93DF93CF93CDB7DEB7AB970FB6F8946F
:101F4000DEBF0FBECDBF8C017E010894E11CF11CE9
:101F500097010E94730F882319F420E030E005C038
:101F6000C801B7010E949F089C01C901AB960FB63A
:101F7000F894DEBF0FBECDBFCF91DF911F910F91BF
:101F8000FF90EF9008951F93109280008AE0809355
:101F9000810082E080936F00109289008AE580932F
:101FA00088000E94240F80913A0690913B0667E1D9
:101FB00076E00E94F60E882309F4FFCF60913A067E
:101FC00070913B06809167069091680647E156E064
:101FD0000E94950F90936C0680936B066BEE73E0F6
:101FE0000E944C0E1092350680916B0690916C0603
:101FF00067E174E040E051E00E94990380916B0634
:1020000090916C0667E175E040E051E00E94990311
:10201000789411E0809139068130E1F71092390609
:102020008091350620916B0630916C06882321F44F
:10203000C90167E174E003C0C90167E175E040E0F0
:1020400051E00E949903109336061816190614F3EE
:10205000F89480916B0690916C060E949303809196
:102060003A0690913B060E94E30460913A06709113
:102070003B06809167069091680647E156E02CE3A5
:1020800036E00E94730F80913A0690913B0667E11B
:1020900076E00E94F60E882309F4FFCF60913A069D
:1020A00070913B06809167069091680647E156E083
:1020B0000E94950F90936C0680936B066BEE73E015
:1020C0000E944C0E1092350680916B0690916C0622
:1020D00067E174E040E051E00E94990380916B0653
:1020E00090916C0667E175E040E051E00E94990331
:1020F000789490CF1F920F920FB60F9211242F93C6
:102100003F934F935F936F937F938F939F93AF937F
:10211000BF93EF93FF93F894809137069091380620
:1021200080509140B9F481E08093390610923806CE
:102130001092370690913606913051F48091350611
:10214000882319F49093350605C01092350602C015
:10215000789431C080913506882339F4E0913706B0
:10216000F0913806E95EFB4F06C0E0913706F0912A
:102170003806E95EFA4F80818093EA038091370642
:10218000909138060196909338068093370682E145
:1021900060E00E94021281E160E00E9402128091E0
:1021A000EA038BB981E161E00E94021282E161E001
:1021B0000E9402127894FF91EF91BF91AF919F918D
:1021C0008F917F916F915F914F913F912F910F90E0
:1021D0000FBE0F901F9018951F9310E0812F61E0A4
:1021E0000E94E2111F5F1830C9F782E161E00E948E
:1021F000E21181E161E00E94E21180E161E00E9470
:10220000E2118FE061E00E94E2118AE061E00E9449
:10221000E21189E061E00E94E2118AE061E00E943F
:1022200002128EE060E00E94021289E060E00E94EB
:10223000021282E161E00E94021281E161E00E94EB
:1022400002128FE061E00E94021280E160E00E94D1
:10225000021282E160E00E9402128AE090E00E9495
:102260009A1181E160E00E9402128AE090E00E94EF
:102270009A1182E160E00E9402128AE090E00E94DE
:102280009A1181E160E00E9402128AE090E00E94CF
:102290009A111F9108950E94A8110E94EC100E94AB
:1022A000C30FFDCF1F920F920FB60F9211242F93E1
:1022B0003F938F939F93AF93BF93809171069091BB
:1022C0007206A0917306B09174063091750601965E
:1022D000A11DB11D232F2D5F2D3720F02D57019605
:1022E000A11DB11D2093750680937106909372060F
:1022F000A0937306B093740680916D0690916E065C
:10230000A0916F06B09170060196A11DB11D80933A
:102310006D0690936E06A0936F06B0937006BF9102
:10232000AF919F918F913F912F910F900FBE0F9082
:102330001F901895019759F0FC01EE0FFF1FEE0F4B
:10234000FF1F32978FB7F8943197F1F78FBF089539
:10235000789484B5826084BD84B5816084BD85B580
:10236000826085BD85B5816085BDEEE6F0E0808147
:1023700081608083E1E8F0E08081826080838081F9
:1023800081608083E0E8F0E0808181608083E1EB20
:10239000F0E0808184608083E0EBF0E08081816008
:1023A0008083EAE7F0E080818460808380818260BE
:1023B00080838081816080838081806880831092A7
:1023C000C1000895282F30E0C90186569F4FFC01B7
:1023D00094912A573F4FF9018491882391F0E82F77
:1023E000F0E0EE0FFF1FE859FF4FA591B49166236F
:1023F00029F48C91909589238C9308958C91892B45
:102400008C930895482F50E0CA0182559F4FFC01DC
:102410002491CA0186569F4FFC0194914A575F4F01
:10242000FA0134913323D1F1222331F1233021F405
:10243000809180008F7705C0243031F48091800036
:102440008F7D8093800018C0213019F484B58F7778
:1024500004C0223021F484B58F7D84BD0DC02630A8
:1024600021F48091B0008F7705C0273029F4809146
:10247000B0008F7D8093B000E32FF0E0EE0FFF1FE0
:10248000EE58FF4FA591B491662329F48C91909555
:1024900089238C9308958C91892B8C930895629F46
:1024A000D001739FF001829FE00DF11D649FE00D4C
:1024B000F11D929FF00D839FF00D749FF00D659FAD
:1024C000F00D9927729FB00DE11DF91F639FB00DAC
:1024D000E11DF91FBD01CF0111240895AA1BBB1BEB
:1024E00051E107C0AA1FBB1FA617B70710F0A61B14
:1024F000B70B881F991F5A95A9F780959095BC0135
:10250000CD010895A1E21A2EAA1BBB1BFD010DC02F
:10251000AA1FBB1FEE1FFF1FA217B307E407F50793
:1025200020F0A21BB30BE40BF50B661F771F881F6F
:10253000991F1A9469F760957095809590959B0105
:10254000AC01BD01CF0108952F923F924F925F924F
:102550006F927F928F929F92AF92BF92CF92DF92B3
:10256000EF92FF920F931F93CF93DF93CDB7DEB718
:10257000CA1BDB0B0FB6F894DEBF0FBECDBF0994AC
:102580002A88398848885F846E847D848C849B8403
:10259000AA84B984C884DF80EE80FD800C811B8111
:1025A000AA81B981CE0FD11D0FB6F894DEBF0FBE40
:0A25B000CDBFED010895F894FFCFB0
:1025BA0025782578002E776176002F00010305071C
:0A25CA00090E10121416181C1E0052
:00000001FF
